:020000040800F2
:1000000000100020D90A00086D0A0008730A0008D1
:1000100000000000000000000000000000000000E0
:10002000000000000000000000000000790A000845
:100030000000000000000000830A00088D0A00088C
:10004000290B000800000000290B0008290B0008FC
:10005000290B0008290B0008290B0008290B0008B0
:1000600000000000290B00089D0A0008B50A0008DE
:10007000290B0008290B0008290B000800000000CC
:10008000290B00080000000000000000290B0008F8
:1000900000000000290B0008290B0008290B0008AC
:1000A00000000000290B000800000000290B0008D8
:1000B0000000000000000000000000000000000040
:1000C00010B5064C2378002B07D1054B002B02D02E
:1000D000044800E000BF0123237010BD0C00002085
:1000E00000000000F0310008044B10B5002B03D0D5
:1000F0000349044800E000BF10BDC04600000000F6
:1001000010000020F03100080023C25C0133002AF7
:10011000FBD1581E70470000002243088B4274D365
:1001200003098B425FD3030A8B4244D3030B8B42F8
:1001300028D3030C8B420DD3FF22090212BA030C01
:100140008B4202D31212090265D0030B8B4219D3E2
:1001500000E0090AC30B8B4201D3CB03C01A524102
:10016000830B8B4201D38B03C01A5241430B8B424A
:1001700001D34B03C01A5241030B8B4201D30B0333
:10018000C01A5241C30A8B4201D3CB02C01A52415A
:10019000830A8B4201D38B02C01A5241430A8B421D
:1001A00001D34B02C01A5241030A8B4201D30B0206
:1001B000C01A5241CDD2C3098B4201D3CB01C01A20
:1001C000524183098B4201D38B01C01A524143092A
:1001D0008B4201D34B01C01A524103098B4201D318
:1001E0000B01C01A5241C3088B4201D3CB00C01A85
:1001F000524183088B4201D38B00C01A52414308FD
:100200008B4201D34B00C01A5241411A00D2014621
:10021000524110467047FFE701B5002000F006F894
:1002200002BDC0460029F7D076E770477047C04648
:1002300090B587B000AF1623FB1800221A80142354
:10024000FB1800221A801223FB1800221A801023A8
:10025000FB1800221A8000F069FC00F0FDF800F0A5
:100260006FFA00F047FA00F0B7F900F013FA00F067
:1002700053F9714B180001F061FE704B180001F04A
:100280005DFE39006E4B0622180002F09FF96A4BA2
:100290001B685A6A16217B181A80684B1B685A6AB9
:1002A0001423FB181A807A181223FB1812881B8853
:1002B0009A4252D00FE0604B1B685A6A16243B19D1
:1002C0001A80FA235B00180000F094FC1223FB183C
:1002D0003A1912881A801223FA1816217B181288EC
:1002E0001B889A42E7D17B181B880822B9180A227A
:1002F000180002F031FF01235B425249504810229E
:1003000002F0C4F89023DB052021180001F07CF8EE
:10031000031E07D001235B424B494948062202F0E5
:10032000B5F806E001235B4248494548062202F041
:10033000ADF808243B191800FFF7E6FE03009AB257
:1003400001235B4239193E4802F0A0F801235B42C9
:100350003F493B48022202F099F81423FA1810236F
:10036000FB1812881B889A4291D00FE0334B1B6810
:100370005A6A14243B191A80FA235B00180000F013
:1003800039FC1023FB183A1912881A801023FA1826
:1003900014243B1912881B889A42E7D1FA239B0048
:1003A000180000F027FC254B1B685A6A3B191A807D
:1003B0003B191B880822B9180A22180002F0CCFE4B
:1003C00001235B4223491E48102202F05FF880237C
:1003D000DA009023DB051100180001F015F8031E68
:1003E00007D001235B4218491548062202F04EF857
:1003F00006E001235B4215491148062202F046F847
:1004000008243B191800FFF77FFE03009AB201236E
:100410005B4239190A4802F039F801235B420C4962
:100420000748022202F032F81023FB181422BA18EF
:1004300012881A802BE7C046700000202800002098
:10044000FC000020083200081C320008243200089A
:100450002C3200083032000890B595B000AF20244F
:100460003B19180030231A00002102F079FE1023F6
:10047000FB18180010231A00002102F071FE3B0047
:10048000180010231A00002102F06AFE21007B18D8
:1004900001221A607B1801225A607B1802221A621C
:1004A0007B18802252025A627B18802252039A6281
:1004B0007B180022DA627B18180000F0C3FF031ECD
:1004C00001D000F07BF910217B1807221A607B18FD
:1004D00002225A607B1800229A607B180022DA60A0
:1004E0007B180121180001F0C7FA031E01D000F0AB
:1004F00065F93B0001221A603B0000229A603B0034
:10050000180001F0FDFB031E01D000F057F9C046B2
:10051000BD4615B090BD000080B588B000AF0C237B
:10052000FB18180014231A00002102F019FE3B1DCD
:10053000180008231A00002102F012FE234B244A5F
:100540001A60224B00225A60204B00229A601F4BF7
:10055000204ADA601D4B00221A611C4B00225A61AE
:100560001A4B00229A61194B180001F097FC031EE8
:1005700001D000F023F90C217B1807221A607B18A8
:1005800060225A607B1800229A607B1800221A6150
:100590007A180E4B1100180001F00EFD031E01D059
:1005A00000F00CF93B1D00221A603B1D00225A602E
:1005B0003A1D064B1100180001F0C2FE031E01D0C7
:1005C00000F0FCF8C046BD4608B080BD2800002001
:1005D000002C0140FFFF000080B588B000AF0C2365
:1005E000FB18180014231A00002102F0B9FD3B1D6E
:1005F000180008231A00002102F0B2FD224B234A02
:100600001A60214B00225A601F4B00229A601E4B39
:100610001F4ADA601C4B00221A611B4B00229A61B0
:10062000194B180001F03AFC031E01D000F0C6F887
:100630000C217B1807221A607B1850225A607B1805
:1006400000229A607B1800221A617A180E4B110062
:10065000180001F0B1FC031E01D000F0AFF83B1D03
:1006600000221A603B1D00225A603A1D064B110001
:10067000180001F065FE031E01D000F09FF8C0468F
:10068000BD4608B080BDC046700000200004004098
:10069000FFFF000080B500AF144B154A1A60134BE2
:1006A000E12252025A60114B00229A600F4B002245
:1006B000DA600E4B00221A610C4B0C225A610B4B74
:1006C00000229A61094B0022DA61084B00221A626B
:1006D000064B00225A62054B180001F083FE031EF0
:1006E00001D000F06BF8C046BD4680BDFC00002084
:1006F0000038014080B582B000AF104B5A690F4BF3
:1007000001210A435A610D4B5B69012213407B6052
:100710007B68002200210A2000F03CFB0A2000F048
:100720004EFB002200210B2000F034FB0B2000F0D8
:1007300046FBC046BD4602B080BDC0460010024028
:1007400090B589B000AF0C243B19180014231A008F
:10075000002102F005FD184B5A69174B8021C9038F
:100760000A435A61144B5A698023DB031340BB6070
:10077000BB68114B5A69104B802189020A435A61A8
:100780000D4B5A6980239B0213407B607B683B19A9
:100790008422D2001A603B1900225A603B190022C1
:1007A0009A603A199023DB051100180000F0BCFC98
:1007B000C046BD4609B090BD0010024080B500AFF4
:1007C00072B6C046FEE7000080B582B000AF0F4BA6
:1007D0009A690E4B01210A439A610C4B9B690122D5
:1007E00013407B607B68094BDA69084B802149051F
:1007F0000A43DA61054BDA6980235B0513403B60ED
:100800003B68C046BD4602B080BDC04600100240F5
:1008100090B58DB000AF78601C243B1918001423EC
:100820001A00002102F09CFC7B681B684F4A93422F
:1008300034D14F4B9A694E4B802109010A439A618A
:100840004B4B9A6980231B011340BB61BB69484B2A
:100850005A69474B802189020A435A61444B5A69BD
:1008600080239B0213407B617B693B1980229200AD
:100870001A6021007B1802225A607B1800229A60BD
:100880007B180022DA607B1802221A617A18902302
:10089000DB051100180000F047FC63E07B681B6873
:1008A000344A93425ED1324BDA69314B02210A431A
:1008B000DA612F4BDB69022213403B613B692C4B11
:1008C0005A692B4B802189020A435A61284B5A6985
:1008D00080239B021340FB60FB681C217B18402295
:1008E0001A607B1802225A607B1800229A607B18DB
:1008F0000022DA607B1801221A617A189023DB0546
:100900001100180000F010FC1B4B1C4A1A601A4B17
:1009100000225A60184B00229A60174B8022DA603E
:10092000154B802252001A61134B8022D2005A616B
:10093000114B00229A61104B0022DA610E4B180015
:1009400000F05AFA031E01D0FFF738FF7B680A4A0D
:100950005A62094B7A685A627B68074A9A63064B67
:100960007A685A62C046BD460DB090BD002C014069
:100970000010024000040040B80000204400024083
:1009800090B58BB000AF786014243B191800142385
:100990001A00002102F0E4FB7B681B682F4A934297
:1009A00058D12F4B9A692E4B8021C9010A439A6175
:1009B0002B4B9A698023DB0113403B613B69284B39
:1009C0005A69274B802189020A435A61244B5A698C
:1009D00080239B021340FB60FB6821007B180C22E4
:1009E0001A607B1802225A607B1800229A607B18DA
:1009F0000322DA607B1801221A617A189023DB0542
:100A00001100180000F090FB164B174A1A60154BA6
:100A100000225A60134B00229A60124B8022DA6047
:100A2000104B00221A610F4B00225A610D4B2022FD
:100A30009A610C4B0022DA610A4B180000F0DCF9D5
:100A4000031E01D0FFF7BAFE7B68064A5A67054BC2
:100A50007A685A62C046BD460BB090BD003801406E
:100A600000100240840100203000024080B500AF39
:100A7000FEE780B500AFFEE780B500AFC046BD46DB
:100A800080BD80B500AFC046BD4680BD80B500AF1B
:100A900000F094F8C046BD4680BD000080B500AFB0
:100AA000034B180000F056FAC046BD4680BDC04654
:100AB0008401002080B500AF034B180000F04AFA13
:100AC000C046BD4680BDC046B800002080B500AF1E
:100AD000C046BD4680BD00000D488546FFF7F6FFC5
:100AE0000C480D490D4A002302E0D458C450043389
:100AF000C4188C42F9D30A4A0A4C002301E013605F
:100B00000432A242FBD302F0EBFAFFF791FBFEE7BF
:100B100000100020000000200C000020AC32000873
:100B20000C000020CC010020FEE7000080B500AFE3
:100B3000074B1A68064B10210A431A60032000F085
:100B400009F8FFF741FE00231800BD4680BDC046EE
:100B50000020024090B583B000AF7860144B1C6851
:100B6000144B1B781900FA239800FFF7D5FA0300FD
:100B700019002000FFF7D0FA0300180000F02FF949
:100B8000031E01D001230FE07B68032B0BD879688B
:100B900001235B420022180000F0FCF8064B7A6843
:100BA0001A60002300E001231800BD4603B090BD89
:100BB00000000020080000200400002080B500AFE5
:100BC000054B1B781A00054B1B68D218034B1A60A3
:100BD000C046BD4680BDC04608000020C8010020B8
:100BE00080B500AF024B1B681800BD4680BDC046F3
:100BF000C801002080B584B000AF7860FFF7F0FF37
:100C00000300BB607B68FB60FB68013305D00A4BC7
:100C10001B781A00FB689B18FB60C046FFF7E0FFDB
:100C20000200BB68D31AFA689A42F7D8C046C04699
:100C3000BD4604B080BDC0460800002080B582B02B
:100C400000AF0200FB1D1A70FB1D1B787F2B09D81B
:100C5000FB1D1B781A001F231A40044B01219140F1
:100C60000A001A60C046BD4602B080BD00E100E047
:100C700090B583B000AF02003960FB1D1A70FB1DF8
:100C80001B787F2B28D82F4AFB1D1B785BB29B0853
:100C9000C0339B009B58FA1D1278110003220A40B2
:100CA000D200FF2191400A00D2431A4011003B6854
:100CB0009B01FF221A40FB1D1B78180003230340F1
:100CC000DB009A401F48FB1D1B785BB29B080A4360
:100CD000C0339B001A5031E01B4AFB1D1B781900E2
:100CE0000F230B40083B9B0806339B00D3180433AB
:100CF0001B68FA1D1278110003220A40D200FF215E
:100D000091400A00D2431A4011003B689B01FF2228
:100D10001A40FB1D1B78180003230340DB009A4098
:100D20000948FB1D1B781C000F232340083B9B0830
:100D30000A4306339B00C31804331A60C046BD46FD
:100D400003B090BD00E100E000ED00E080B582B0AE
:100D500000AF78607B685A1E80235B049A4201D3FF
:100D6000012310E00A4B7A68013A5A6001235B4282
:100D700003211800FFF77CFF054B00229A60044B0B
:100D800007221A6000231800BD4602B080BDC0468D
:100D900010E000E080B584B000AFB9607A600F2148
:100DA0007B18021C1A70BA687B181B785BB21100A2
:100DB0001800FFF75DFFC046BD4604B080BD80B59A
:100DC00082B000AF0200FB1D1A70FB1D1B785BB2E6
:100DD0001800FFF733FFC046BD4602B080BD80B5A6
:100DE00082B000AF78607B681800FFF7AFFF0300A8
:100DF0001800BD4602B080BD80B584B000AF7860F9
:100E00000023FB607B68002B01D1012336E07B6867
:100E10002122022199547B681B681B68FB60FB68D8
:100E2000184A1340FB607B685A687B689B681A43CA
:100E30007B68DB681A437B681B691A437B685B69C4
:100E40001A437B689B691A437B68DB691343FA6822
:100E50001343FB607B681B68FA681A607B681800A4
:100E600000F046F97B6800229A637B682122012109
:100E700099547B6820220021995400231800BD4614
:100E800004B080BD0FC0FFFF80B586B000AFF86032
:100E9000B9607A603B601723FB1800221A70FB6868
:100EA00020229B5C012B01D102234FE0FB68202212
:100EB00001219954FB6821229B5CDBB2012B3AD1C2
:100EC000FB68212202219954FB6800229A63FB6887
:100ED0001B681A68FB681B6801218A431A603B681B
:100EE0007A68B968F86800F0D7F8FB68DB6A002B0D
:100EF00008D0FB681B681A68FB681B680E210A4350
:100F00001A600FE0FB681B681A68FB681B680A21FF
:100F10000A431A60FB681B681A68FB681B68042197
:100F20008A431A60FB681B681A68FB681B6801210A
:100F30000A431A6007E0FB68202200219954172316
:100F4000FB1802221A701723FB181B781800BD46E5
:100F500006B080BD80B584B000AF78607B68DB6B85
:100F60001B68FB607B681B681B68BB607B681B6C35
:100F700004229A401300FA68134024D0BB6804226C
:100F8000134020D07B681B681B682022134007D1C8
:100F90007B681B681A687B681B6804218A431A6097
:100FA0007B681A6C7B68DB6B042191400A005A60F5
:100FB0007B68DB6A002B00D16AE07B68DB6A7A68B9
:100FC0001000984764E07B681B6C02229A40130073
:100FD000FA6813402BD0BB680222134027D07B68ED
:100FE0001B681B68202213400BD17B681B681A68A2
:100FF0007B681B680A218A431A607B6821220121D1
:1010000099547B681A6C7B68DB6B022191400A0063
:101010005A607B682022002199547B689B6A002BD0
:1010200036D07B689B6A7A681000984730E07B680E
:101030001B6C08229A401300FA68134028D0BB6842
:101040000822134024D07B681B681A687B681B68E1
:101050000E218A431A607B681A6C7B68DB6B012166
:1010600091400A005A607B6801229A637B682122C2
:10107000012199547B682022002199547B681B6BC5
:10108000002B05D07B681B6B7A6810009847FFE740
:10109000C046BD4604B080BD80B584B000AFF860E6
:1010A000B9607A603B60FB681A6CFB68DB6B0121FE
:1010B00091400A005A60FB681B683A685A60FB68F6
:1010C0005B68102B08D1FB681B687A689A60FB6824
:1010D0001B68BA68DA6007E0FB681B68BA689A6048
:1010E000FB681B687A68DA60C046BD4604B080BD04
:1010F00080B582B000AF78607B681B68084A944670
:10110000634414211800FFF707F803009A007B6876
:101110001A647B68034ADA63C046BD4602B080BDEC
:10112000F8FFFDBF0000024080B586B000AF7860D8
:10113000396000237B614FE13B681B6801217A69BC
:1011400091400A001340FB60FB68002B00D140E196
:101150003B685B6803221340012B05D03B685B684A
:1011600003221340022B30D17B689B683B617B6973
:101170005B0003229A401300DA433B6913403B6152
:101180003B68DA687B695B009A4013003A69134355
:101190003B617B683A699A607B685B683B610122CE
:1011A0007B699A401300DA433B6913403B613B681B
:1011B0005B681B0901221A407B699A4013003A6957
:1011C00013433B617B683A695A603B685B68032262
:1011D0001340032B17D07B68DB683B617B695B00A6
:1011E00003229A401300DA433B6913403B613B689A
:1011F0009A687B695B009A4013003A6913433B612C
:101200007B683A69DA603B685B6803221340022B13
:1012100023D17B69DA087B6808329200D3583B619E
:101220007B69072213409B000F229A401300DA4388
:101230003B6913403B613B681A697B6907210B409E
:101240009B009A4013003A6913433B617B69DA08BB
:101250007B68083292003969D1507B681B683B611A
:101260007B695B0003229A401300DA433B69134019
:101270003B613B685B6803221A407B695B009A40D4
:1012800013003A6913433B617B683A691A603B6813
:101290005A68C0239B02134000D19AE0544B9A69CC
:1012A000534B01210A439A61514B9B690122134020
:1012B000BB60BB684F4A7B699B0802339B009B580D
:1012C0003B617B69032213409B000F229A4013006D
:1012D000DA433B6913403B617A689023DB059A420D
:1012E00013D07B68444A93420DD07B68434A9342B3
:1012F00007D07B68424A934201D1032306E00523CD
:1013000004E0022302E0012300E000237A690321C4
:101310000A40920093403A6913433B6135497B6927
:101320009B0802339B003A695A50364B9B683B61DD
:10133000FB68DA433B6913403B613B685A68802392
:101340005B03134003D03A69FB6813433B612D4BA9
:101350003A699A602B4BDB683B61FB68DA433B6977
:1013600013403B613B685A6880239B03134003D0C2
:101370003A69FB6813433B61224B3A69DA60214BBF
:101380005B683B61FB68DA433B6913403B613B6848
:101390005A6880239B02134003D03A69FB681343C9
:1013A0003B61184B3A695A60164B1B683B61FB68FE
:1013B000DA433B6913403B613B685A6880235B0218
:1013C000134003D03A69FB6813433B610D4B3A6904
:1013D0001A607B6901337B613B681A687B69DA407C
:1013E000131E00D0A8E6C046C046BD4606B080BD6C
:1013F00000100240000001400004004800080048BE
:10140000000C00480004014080B584B000AF786053
:101410000A00BB1C1A807B681B69BA1C1288134027
:1014200004D00F23FB1801221A7003E00F23FB18CE
:1014300000221A700F23FB181B781800BD4604B059
:1014400080BD000080B588B000AF78607B68002B5D
:1014500001D1012301E37B681B680122134000D105
:101460008DE0C34B5B680C221340042B0ED0C04BA5
:101470005B680C221340082B16D1BD4B5A688023A1
:101480005B021A4080235B029A420DD1B84B1A6866
:1014900080239B02134000D170E07B685B68002BC7
:1014A00000D06BE00123D8E27B685B68012B07D199
:1014B000AF4B1A68AE4B802149020A431A602FE0F5
:1014C0007B685B68002B0CD1A94B1A68A84BA94913
:1014D0000A401A60A64B1A68A54BA7490A401A6031
:1014E0001EE07B685B68052B0ED1A14B1A68A04BF0
:1014F0008021C9020A431A609D4B1A689C4B8021C7
:1015000049020A431A600BE0994B1A68984B9949B3
:101510000A401A60964B1A68954B97490A401A6020
:101520007B685B68002B14D0FFF75AFB0300BB619C
:1015300008E0FFF755FB0200BB69D31A642B01D901
:1015400003238AE28A4B1A6880239B021340F0D05F
:1015500015E0FFF745FB0300BB6108E0FFF740FB28
:101560000200BB69D31A642B01D9032375E2804BB7
:101570001A6880239B021340F0D100E0C0467B68CC
:101580001B680222134000D169E0794B5B680C2292
:1015900013400BD0764B5B680C221340082B1CD1F8
:1015A000734B5A6880235B02134016D1704B1B6843
:1015B0000222134005D07B68DB68012B01D0012398
:1015C0004BE26B4B1B68F822934319007B681B6945
:1015D000DA00674B0A431A6041E07B68DB68002B46
:1015E00024D0634B1A68624B01210A431A60FFF74B
:1015F000F7FA0300BB6108E0FFF7F2FA0200BB69EB
:10160000D31A022B01D9032327E2594B1B6802226C
:101610001340F1D0564B1B68F822934319007B68A6
:101620001B69DA00524B0A431A6018E0504B1A68E3
:101630004F4B01218A431A60FFF7D2FA0300BB61C6
:1016400008E0FFF7CDFA0200BB69D31A022B01D9DB
:10165000032302E2464B1B6802221340F1D17B6850
:101660001B680822134036D07B68DB69002B19D039
:101670003F4B5A6A3E4B01210A435A62FFF7B0FAC8
:101680000300BB6108E0FFF7ABFA0200BB69D31AA5
:10169000022B01D90323E0E1354B5B6A02221340A0
:1016A000F1D018E0324B5A6A314B01218A435A6219
:1016B000FFF796FA0300BB6108E0FFF791FA02001A
:1016C000BB69D31A022B01D90323C6E1284B5B6AFD
:1016D00002221340F1D17B681B680422134000D121
:1016E000B4E01F203B1800221A70214BDA698023D6
:1016F0005B05134010D11E4BDA691D4B8021490553
:101700000A43DA611A4BDA6980235B051340FB60F8
:10171000FB683B1801221A70184B1A6880235B0083
:1017200013401AD1154B1A68144B802149000A4303
:101730001A60FFF755FA0300BB6108E0FFF750FAA3
:101740000200BB69D31A642B01D9032385E10B4B3B
:101750001A6880235B001340F0D07B689B68012BE4
:101760000ED1034B1A6A024B01210A431A6235E07B
:1017700000100240FFFFFEFFFFFFFBFF0070004074
:101780007B689B68002B0CD1B64B1A6AB54B0121C4
:101790008A431A62B34B1A6AB24B04218A431A6213
:1017A0001CE07B689B68052B0CD1AE4B1A6AAD4BD5
:1017B00004210A431A62AB4B1A6AAA4B01210A435D
:1017C0001A620BE0A74B1A6AA64B01218A431A62E0
:1017D000A44B1A6AA34B04218A431A627B689B6854
:1017E000002B14D0FFF7FCF90300BB6109E0FFF701
:1017F000F7F90200BB69D31A9B4A934201D903232C
:101800002BE1984B1B6A02221340F0D013E0FFF744
:10181000E7F90300BB6109E0FFF7E2F90200BB69E9
:10182000D31A914A934201D9032316E18D4B1B6AC7
:1018300002221340F0D11F23FB181B78012B05D186
:10184000884BDA69874B89490A40DA617B681B68F3
:101850001022134063D07B685B69012B2AD1814B36
:101860005A6B804B04210A435A637E4B5A6B7D4B63
:1018700001210A435A63FFF7B3F90300BB6108E093
:10188000FFF7AEF90200BB69D31A022B01D903237B
:10189000E3E0744B5B6B02221340F1D0714B5B6B46
:1018A000F822934319007B689B69DA006D4B0A4369
:1018B0005A6334E07B685B69053311D1694B5A6B1D
:1018C000684B04218A435A63664B5B6BF82293434F
:1018D00019007B689B69DA00624B0A435A631EE079
:1018E000604B5A6B5F4B04210A435A635D4B5A6B42
:1018F0005C4B01218A435A63FFF772F90300BB6115
:1019000008E0FFF76DF90200BB69D31A022B01D979
:101910000323A2E0534B5B6B02221340F1D17B689F
:101920001B6A002B00D197E04E4B5B680C221340E2
:10193000082B00D16BE07B681B6A022B4CD1494B12
:101940001A68484B4A490A401A60FFF749F90300F0
:10195000BB6108E0FFF744F90200BB69D31A022B10
:1019600001D9032379E03F4B1A6880239B0413407D
:10197000F0D13C4BDB6A0F22934319007B68DA6A93
:10198000384B0A43DA62374B5B683A4A1340190016
:101990007B689A6A7B685B6A1A43324B0A435A60D7
:1019A000304B1A682F4B802149040A431A60FFF715
:1019B00017F90300BB6108E0FFF712F90200BB69E9
:1019C000D31A022B01D9032347E0264B1A68802340
:1019D0009B041340F0D03FE0224B1A68214B24496E
:1019E0000A401A60FFF7FCF80300BB6108E0FFF74C
:1019F000F7F80200BB69D31A022B01D903232CE0AC
:101A0000184B1A6880239B041340F0D124E07B68B4
:101A10001B6A012B01D101231FE0124B5B687B6124
:101A2000104BDB6A3B617A6980235B021A407B685A
:101A30005B6A9A420ED13B690F221A407B68DB6ACF
:101A40009A4207D17A69F0239B031A407B689B6A0C
:101A50009A4201D0012300E000231800BD4608B0DF
:101A600080BDC0460010024088130000FFFFFFEF5A
:101A7000FFFFFFFEFFFFC2FF80B584B000AF7860BC
:101A800039607B68002B01D10123B3E05B4B1B68FD
:101A9000012213403A689A4211D9584B1B6801221F
:101AA00093431900554B3A680A431A60534B1B681D
:101AB000012213403A689A4201D001239AE07B68E0
:101AC0001B680222134015D07B681B680422134058
:101AD00006D04B4B5A684A4BE021C9000A435A6072
:101AE000474B5B68F022934319007B689A68444B2C
:101AF0000A435A607B681B680122134040D07B6810
:101B00005B68012B07D13E4B1A6880239B02134070
:101B100014D101236EE07B685B68022B07D1384B40
:101B20001A6880239B04134008D1012362E0344BE0
:101B30001B680222134001D101235BE0304B5B683C
:101B40000322934319007B685A682D4B0A435A605D
:101B5000FFF746F80300FB6009E0FFF741F80200D9
:101B6000FB68D31A274A934201D9032342E0244B4E
:101B70005B680C221A407B685B689B009A42ECD140
:101B80001E4B1B68012213403A689A4211D21B4B2C
:101B90001B68012293431900184B3A680A431A60E4
:101BA000164B1B68012213403A689A4201D0012368
:101BB00020E07B681B680422134009D0104B5B684F
:101BC000114A134019007B68DA680D4B0A435A60CA
:101BD00000F020F801000A4B5B681B090F2213403C
:101BE0000A4AD35C0A00DA40094B1A600320FEF768
:101BF000B1FF00231800BD4604B080BD00200240A4
:101C00000010024088130000FFF8FFFF4432000874
:101C10000000002080B586B000AF0023FB600023E9
:101C2000BB6000237B6100237B6000233B61204B72
:101C30005B68FB60FB680C221340042B02D0082B6E
:101C400003D02CE01B4B3B612CE0FB689B0C0F226C
:101C50001340194AD35C7B60154BDB6A0F2213409B
:101C6000164AD35CBB60FA6880235B02134009D03C
:101C7000B9681048FEF750FA03001A007B68534316
:101C80007B6109E079680A005201521A93019B1A9C
:101C9000DB005B181B027B617B693B6102E0054B4B
:101CA0003B61C0463B691800BD4606B080BDC046DA
:101CB0000010024000127A005C3200086C3200080A
:101CC00080B500AF024B1B681800BD4680BDC04602
:101CD0000000002080B500AFFFF7F2FF0100064BC7
:101CE0005B681B0A07221340044AD35CD9400B00EF
:101CF0001800BD4680BDC0460010024054320008A6
:101D000080B586B000AF786000233B610023FB60A4
:101D10007B681A6880235B02134000D18EE0172095
:101D20003B1800221A70574BDA6980235B05134079
:101D300010D1544BDA69534B802149050A43DA61CB
:101D4000504BDA6980235B051340BB60BB683B18CE
:101D500001221A704C4B1A6880235B0013401AD181
:101D6000494B1A68484B802149000A431A60FEF724
:101D700037FF03003B6108E0FEF732FF02003B69DA
:101D8000D31A642B01D9032377E03F4B1A688023D1
:101D90005B001340F0D03B4B1A6AC0239B001340FA
:101DA000FB60FB68002B34D07B685A68C0239B0023
:101DB0001340FA689A422CD0324B1B6A334A1340C4
:101DC000FB60304B1A6A2F4B802149020A431A628A
:101DD0002C4B1A6A2B4B2E490A401A62294BFA687F
:101DE0001A62FB680122134013D0FEF7F9FE0300CC
:101DF0003B6109E0FEF7F4FE02003B69D31A254A75
:101E0000934201D9032338E01E4B1B6A0222134080
:101E1000F0D01C4B1B6A1D4A134019007B685A689E
:101E2000184B0A431A621723FB181B78012B05D1A4
:101E3000144BDA69134B18490A40DA617B681B6856
:101E40000122134009D00F4B1B6B0322934319004F
:101E50007B689A680B4B0A431A637B681B682022D5
:101E6000134009D0074B1B6B1022934319007B686A
:101E7000DA68044B0A431A6300231800BD4606B013
:101E800080BDC0460010024000700040FFFCFFFF14
:101E9000FFFFFEFF88130000FFFFFFEF80B582B059
:101EA00000AF78607B68002B01D1012342E07B68A2
:101EB0003D229B5CDBB2002B07D17B683C220021DA
:101EC00099547B681800FEF7A3FC7B683D22022131
:101ED00099547B681A687B6804331900100000F07D
:101EE000B1F87B684622012199547B683E2201218A
:101EF00099547B683F22012199547B68402201213B
:101F000099547B684122012199547B684222012126
:101F100099547B684322012199547B684422012112
:101F200099547B684522012199547B683D22012107
:101F3000995400231800BD4602B080BD80B584B01E
:101F400000AF78607B683D229B5CDBB2012B01D047
:101F5000012328E07B683D22022199547B681B689D
:101F6000134A934204D07B681B68124A934211D1F2
:101F70007B681B689B6807221340FB60FB68062B8D
:101F800010D07B681B681A687B681B6801210A43B4
:101F90001A6007E07B681B681A687B681B68012170
:101FA0000A431A6000231800BD4604B080BDC04635
:101FB000002C01400004004080B582B000AF786082
:101FC00039607B683C229B5C012B01D1022332E00B
:101FD0007B683C22012199547B683D22022199545F
:101FE0003A687B681100180000F098F8031E09D0C9
:101FF0007B683D22012199547B683C220021995441
:10200000012318E07B681B68DA687B681B68402145
:102010008A43DA607B681B68DA687B681B6808495A
:102020000A40DA607B683D22012199547B683C229A
:102030000021995400231800BD4602B080BDC0465F
:10204000FFBFFFFF80B584B000AF786039607B6868
:102050001B68FB607B682B4A934203D07B682A4A4B
:10206000934208D1FB6870229343FB603B685B6836
:10207000FA681343FB607B68224A93420FD07B6867
:10208000214A93420BD07B68204A934207D07B6859
:102090001F4A934203D07B681E4A934208D1FB68D3
:1020A0001D4A1340FB603B68DB68FA681343FB6022
:1020B000FB68802293431A003B685B691343FB6013
:1020C0007B68FA681A603B689A687B68DA623B68EA
:1020D0001A687B689A627B680A4A934207D07B68D9
:1020E0000B4A934203D07B680A4A934203D13B6870
:1020F0001A697B681A637B6801225A61C046BD4633
:1021000004B080BD002C01400004004000200040CD
:102110000044014000480140FFFCFFFF80B586B04D
:1021200000AF786039601723FB1800221A707B68B3
:102130001B689B683B613B69702293433B613B6832
:102140005B683A6913433B613B69072293433B61F8
:102150003B681B683A6913433B617B681B683A69BB
:102160009A603B685B68702B15D000D95BE0602BF0
:102170004FD058D8502B42D055D8402B16D052D8DB
:10218000302B55D04FD8202B52D04CD8002B4FD0CD
:10219000102B4DD047E07B6818683B68D9683B68D6
:1021A0009A683B681B6900F0ABF842E03B681B682B
:1021B000052B01D101233FE07B681B681B6AFB6094
:1021C0007B681B681A6A7B681B6801218A431A6254
:1021D0007B681B689B69BB60BB68F0229343BB6054
:1021E0003B681B691B01BA681343BB607B681B68B3
:1021F000BA689A617B681B68FA681A6219E07B68A2
:1022000018683B6899683B681B691A0000F018F869
:102210000FE07B6818683B6899683B681B691A0087
:1022200000F03CF805E01723FB1801221A7000E0CB
:10223000C0461723FB181B781800BD4606B080BDAA
:1022400080B586B000AFF860B9607A60FB681B6A41
:102250007B61FB681B6A012293431A00FB681A62C8
:10226000FB689B693B613B69F02293433B617B6860
:102270001B013A6913433B617B690A2293437B61EB
:102280007A69BB6813437B61FB683A699A61FB68B2
:102290007A691A62C046BD4606B080BD80B586B078
:1022A00000AFF860B9607A60FB681B6A1022934344
:1022B0001A00FB681A62FB689B697B61FB681B6AFA
:1022C0003B617B690D4A13407B617B681B037A6924
:1022D00013437B613B69A02293433B61BB681B01B5
:1022E0003A6913433B61FB687A699A61FB683A6912
:1022F0001A62C046BD4606B080BDC046FF0FFFFF54
:1023000080B586B000AFF860B9607A603B60FB686A
:102310009B687B617B69094A13407B613B681A02B9
:102320007B681A43BB6813437A6913437B61FB687C
:102330007A699A60C046BD4606B080BDFF00FFFFC7
:1023400080B584B000AF786039607B683C229B5CCC
:10235000012B01D102233CE07B683C2201219954EE
:102360007B683D22022199547B681B685B68FB6097
:102370007B681B689B68BB60FB6870229343FB60B3
:102380003B681B68FA681343FB607B681B68FA684C
:102390005A607B681B68114A934204D07B681B68B3
:1023A0000F4A93420CD1BB6880229343BB603B68C9
:1023B0005B68BA681343BB607B681B68BA689A6045
:1023C0007B683D22012199547B683C22002199546D
:1023D00000231800BD4604B080BDC046002C01405B
:1023E0000004004080B582B000AF78607B68002BAD
:1023F00001D1012344E07B68DB6F002B07D17B68B0
:102400007822002199547B681800FEF7B9FA7B689E
:102410002422DA677B681B681A687B681B680121C5
:102420008A431A607B68180000F04AF90300012B08
:1024300001D1012324E07B685B6A002B03D07B6819
:10244000180000F065FA7B681B685A687B681B6897
:102450000D490A405A607B681B689A687B681B6854
:1024600008218A439A607B681B681A687B681B682E
:1024700001210A431A607B68180000F0FDFA03008E
:102480001800BD4602B080BDFFF7FFFF80B58AB0DF
:1024900002AFF860B9603B60BB1D1A80FB68DB6F60
:1024A000202B00D08DE0BB68002B03D0BB1D1B8808
:1024B000002B01D1012385E0FB689A6880235B0132
:1024C0009A4209D1FB681B69002B05D1BB68012228
:1024D000134001D0012375E0FB688422002199504C
:1024E000FB682122DA67FEF77BFB03007B61FB6858
:1024F000BA1D502112885A52FB68BA1D5221128807
:102500005A52FB689A6880235B019A4208D1FB68A3
:102510001B69002B04D10023FB61BB68BB6103E096
:10252000BB68FB610023BB6130E07A69F8683B68F7
:10253000009313000022802100F046FB031E04D00C
:10254000FB682022DA6703233CE0FB69002B0BD1F8
:10255000BB691A88FB681B68D205D20D92B21A8536
:10256000BB690233BB6108E0FB691A78FB681B6832
:1025700092B21A85FB690133FB61FB6852229B5AB8
:102580009BB2013B99B2FB6852229952FB685222DE
:102590009B5A9BB2002BC8D17A69F8683B680093BC
:1025A00013000022402100F00FFB031E04D0FB6843
:1025B0002022DA67032305E0FB682022DA67002384
:1025C00000E002231800BD4608B080BD80B588B089
:1025D00000AFF860B960BB1D1A80FB6880229B5871
:1025E000202B45D1BB68002B03D0BB1D1B88002BC3
:1025F00001D101233DE0FB689A6880235B019A4288
:1026000009D1FB681B69002B05D1BB68012213406F
:1026100001D001232DE0FB6800221A66FB681B68CD
:102620005A6880231B04134019D0EFF310833B61D9
:102630003B69FB6101237B617B6983F31088C046A2
:10264000FB681B681A68FB681B688021C9040A4381
:102650001A60FB69BB61BB6983F31088C046BB1D70
:102660001A88B968FB68180000F018FB030000E046
:1026700002231800BD4608B080BD80B582B000AF0F
:102680007860C046BD4602B080BD80B582B000AF64
:102690007860C046BD4602B080BD80B582B000AF54
:1026A0007860C046BD4602B080BD80B582B000AF44
:1026B00078600A00BB1C1A80C046BD4602B080BDCF
:1026C00080B588B000AF78601E23FB1800221A7016
:1026D0007B689A687B681B691A437B685B691A434D
:1026E0007B68DB6913437B617B681B681B68834ADB
:1026F000134019007B681B687A690A431A607B687B
:102700001B685B687E4A134019007B68DA687B6847
:102710001B680A435A607B689B697B617B681B6A04
:102720007A6913437B617B681B689B68754A134019
:1027300019007B681B687A690A439A60724B1B6BAD
:1027400003221340032B0DD01BD8022B14D018D812
:10275000002B02D0012B0AD013E01F23FB1800220C
:102760001A7012E01F23FB1802221A700DE01F23BB
:10277000FB1804221A7008E01F23FB1808221A70A5
:1027800003E01F23FB1810221A70C0467B68DA6929
:1027900080231B029A425CD11F23FB181B78082B55
:1027A00015D018DC042B0DD015DC002B02D0022B29
:1027B00005D010E0FFF78EFA0300BB6112E0534B27
:1027C000BB610FE0FFF726FA0300BB610AE080233C
:1027D0001B02BB6106E00023BB611E23FB18012224
:1027E0001A70C046BB69002B00D17AE0BB695A0061
:1027F0007B685B685B08D2187B685B681900100017
:10280000FDF78AFC03003B613B690F2B1CD93A6939
:1028100080235B029A4217D23B699AB20E203B1882
:102820000F218A431A803B695B089BB20722134041
:1028300099B23B183A1812880A431A807B681B68C1
:102840003A181288DA604CE01E23FB1801221A7035
:1028500047E01F23FB181B78082B15D018DC042B2E
:102860000DD015DC002B02D0022B05D010E0FFF7B5
:1028700031FA0300BB6112E0244BBB610FE0FFF7AC
:10288000C9F90300BB610AE080231B02BB6106E0BB
:102890000023BB611E23FB1801221A70C046BB69CE
:1028A000002B1ED07B685B685A08BB69D2187B6816
:1028B0005B6819001000FDF72FFC03003B613B69CA
:1028C0000F2B0AD93A6980235B029A4205D23B69F1
:1028D0009AB27B681B68DA6003E01E23FB180122B2
:1028E0001A707B6800229A667B680022DA661E23D3
:1028F000FB181B781800BD4608B080BDF369FFFFC8
:10290000FFCFFFFFFFF4FFFF0010024000127A002C
:1029100080B582B000AF78607B685B6A01221340AB
:102920000BD07B681B685B684A4A134019007B68C0
:102930009A6A7B681B680A435A607B685B6A02225A
:1029400013400BD07B681B685B68434A1340190037
:102950007B68DA6A7B681B680A435A607B685B6A3B
:10296000042213400BD07B681B685B683B4A134012
:1029700019007B681A6B7B681B680A435A607B6886
:102980005B6A082213400BD07B681B685B68344A83
:10299000134019007B685A6B7B681B680A435A60B6
:1029A0007B685B6A102213400BD07B681B689B68B6
:1029B0002C4A134019007B689A6B7B681B680A439A
:1029C0009A607B685B6A202213400BD07B681B688F
:1029D0009B68254A134019007B68DA6B7B681B688B
:1029E0000A439A607B685B6A402213401DD07B6873
:1029F0001B685B681D4A134019007B681A6C7B6872
:102A00001B680A435A607B681A6C80235B039A42F6
:102A10000BD17B681B685B68154A134019007B6803
:102A20005A6C7B681B680A435A607B685B6A802229
:102A300013400BD07B681B685B680E4A134019007B
:102A40007B689A6C7B681B680A435A60C046BD4627
:102A500002B080BDFFFFFDFFFFFFFEFFFFFFFBFF9A
:102A6000FF7FFFFFFFEFFFFFFFDFFFFFFFFFEFFF36
:102A7000FFFF9FFFFFFFF7FF80B592B002AF7860C6
:102A80007B68842200219950FEF7AAF80300FB63BB
:102A90007B681B681B6808221340082B2CD1FB6B3A
:102AA000802291037868464A0092002200F08CF858
:102AB000031E21D0EFF310837B627B6ABB6301238B
:102AC000BB62BB6A83F31088C0467B681B681A68C8
:102AD0007B681B6880218A431A60BB6BFB62FB6AC0
:102AE00083F31088C0467B682022DA677B687822EF
:102AF0000021995403235FE07B681B681B68042254
:102B00001340042B46D1FB6B8022D10378682C4AFA
:102B10000092002200F058F8031E3BD0EFF3108320
:102B2000FB60FB687B6301233B613B6983F3108897
:102B3000C0467B681B681A687B681B6821490A408D
:102B40001A607B6B7B617B6983F31088C046EFF36F
:102B50001083BB61BB693B630123FB61FB6983F3AA
:102B60001088C0467B681B689A687B681B680121D7
:102B70008A439A603B6B3B623B6A83F31088C04692
:102B80007B688022202199507B687822002199540B
:102B9000032311E07B682022DA677B6880222021F2
:102BA00099507B6800221A667B6800225A667B680F
:102BB00078220021995400231800BD4610B080BD32
:102BC000FFFFFF01DFFEFFFF80B584B000AFF860BC
:102BD000B9603B60FB1D1A704BE0BB69013348D004
:102BE000FDF7FEFF02003B68D31ABA699A4202D38E
:102BF000BB69002B01D103234BE0FB681B681B68FA
:102C00000422134035D0FB681B68DB69082213409F
:102C1000082B11D1FB681B6808221A62FB68180098
:102C200000F000F9FB68842208219950FB687822A3
:102C30000021995401232CE0FB681B68DA6980238A
:102C40001B011A4080231B019A4212D1FB681B68AA
:102C5000802212011A62FB68180000F0E3F8FB689A
:102C6000842220219950FB68782200219954032363
:102C70000FE0FB681B68DB69BA681340BA68D31AB7
:102C80005A425341DBB21A00FB1D1B789A42A4D072
:102C900000231800BD4604B080BD000080B590B090
:102CA00000AFF860B960BB1D1A80FB68BA685A654E
:102CB000FB68BA1D582112885A52FB6884220021F1
:102CC0009950FB68802222219950FB685B6F002B92
:102CD00028D0FB685B6F3E4A9A62FB685B6F3D4A97
:102CE000DA62FB685B6F3C4A1A63FB685B6F002229
:102CF0005A63FB68586FFB681B6824331900FB6834
:102D00005B6D1A00BB1D1B88FEF7BEF8031E09D0C1
:102D1000FB68842210219950FB6880222021995061
:102D2000012350E0FB681B69002B19D0EFF31083DF
:102D3000BB62BB6AFB630123FB62FB6A83F31088FF
:102D4000C046FB681B681A68FB681B688021490045
:102D50000A431A60FB6B3B633B6B83F31088C046EE
:102D6000EFF310833B613B69BB6301237B617B69AC
:102D700083F31088C046FB681B689A68FB681B6871
:102D800001210A439A60BB6BBB61BB6983F3108866
:102D9000C046EFF31083FB61FB697B6301233B6259
:102DA0003B6A83F31088C046FB681B689A68FB681F
:102DB0001B6840210A439A607B6B7B627B6A83F3CA
:102DC0001088C04600231800BD4610B080BDC04624
:102DD000ED2E0008193000085B30000880B586B081
:102DE00000AF7860EFF31083BB60BB687B610123A9
:102DF000FB60FB6883F31088C0467B681B681A6819
:102E00007B681B68C0218A431A607B693B613B6910
:102E100083F31088C0467B682022DA67C046BD462F
:102E200006B080BD80B58EB000AF7860EFF3108340
:102E30007B617B697B630123BB61BB6983F3108882
:102E4000C0467B681B681A687B681B6826490A4075
:102E50001A607B6BFB61FB6983F31088C046EFF35C
:102E600010833B623B6A3B6301237B627B6A83F393
:102E70001088C0467B681B689A687B681B680121C4
:102E80008A439A603B6BBB62BB6A83F31088C0467F
:102E90007B681B6E012B18D1EFF31083BB60BB68FE
:102EA000FB620123FB60FB6883F31088C0467B68EC
:102EB0001B681A687B681B6810218A431A60FB6ACA
:102EC0003B613B6983F31088C0467B6880222021E8
:102ED00099507B6800221A667B6800229A66C04679
:102EE000BD460EB080BDC046DFFEFFFF80B594B08A
:102EF00000AF78607B685B6AFB647B689B69202B12
:102F00006FD0FB6C5A2200219952EFF31083BB6102
:102F1000BB69BB640123FB61FB6983F31088C04676
:102F2000FB6C1B681A68FB6C1B683A490A401A6004
:102F3000BB6C3B623B6A83F31088C046EFF310839F
:102F40007B627B6A7B640123BB62BB6A83F310886C
:102F5000C046FB6C1B689A68FB6C1B6801218A43A6
:102F60009A607B6CFB62FB6A83F31088C046EFF3C8
:102F700010833B633B6B3B6401237B637B6B83F37D
:102F80001088C046FB6C1B689A68FB6C1B6840216C
:102F90008A439A603B6CBB63BB6B83F31088C0466B
:102FA000FB6C802220219950FB6C1B6E012B18D1E9
:102FB000EFF31083FB60FB68FB6301233B613B691C
:102FC00083F31088C046FB6C1B681A68FB6C1B6897
:102FD00010218A431A60FB6B7B617B6983F3108845
:102FE000C046FB6C00225A66FB6C1B6E012B08D19D
:102FF000FB6C58229A5AFB6C11001800FFF755FB26
:1030000003E0FB6C1800FFF738FBC046BD4614B068
:1030100080BDC046FFFEFFFF80B584B000AF786082
:103020007B685B6AFB60FB6801225A66FB681B6E6B
:10303000012B0AD1FB6858229B5A5B089AB2FB68A5
:1030400011001800FFF731FB03E0FB681800FFF7E1
:103050001CFBC046BD4604B080BD80B586B000AF45
:1030600078607B685B6A7B617B69DB6F3B617B6956
:1030700080229B58FB607B691B689B688022134001
:10308000802B0AD13B69212B07D17B695222002179
:1030900099527B691800FFF7A1FE7B691B689B684A
:1030A00040221340402B0AD1FB68222B07D17B69B9
:1030B0005A22002199527B691800FFF7B3FE7B6901
:1030C00084229B5810221A437B6984215A507B69C1
:1030D0001800FFF7E2FAC046BD4606B080BD00000A
:1030E00070B500260C4D0D4C641BA410A64209D1EE
:1030F000002600F07DF80A4D0A4C641BA410A6427D
:1031000005D170BDB300EB5898470136EEE7B30028
:10311000EB5898470136F2E7A4320008A4320008C1
:10312000A4320008A8320008931E10B50C00222B10
:1031300004D900231C000B70200010BD0A2A09D1FD
:10314000002807DA2D230B7001214042611800F09E
:103150000FF8F1E70021F9E710B5FFF7E5FF10BD23
:1031600003008218934200D1704719700133F9E7C8
:10317000F0B50C0016008DB025220700164902A8F4
:1031800000F02CF8621E0092B31E02AA00250192E4
:10319000222B04D925702C0020000DB0F0BD380082
:1031A0003100FDF73FF80B00019A2900D35C009A2B
:1031B000013553553B0007009E42F0D90023220001
:1031C00063550B00C81A8342E6DD1078E55C157084
:1031D000E0540132013BF5E77C320008002310B5D2
:1031E0009A4200D110BDCC5CC4540133F8E7000012
:1031F000F8B5C046F8BC08BC9E467047F8B5C04656
:08320000F8BC08BC9E467047B3
:103208004368616E656C203120636F756E74203A77
:10321800000000002D2D2D3E202000003C2D2D2DDE
:10322800202000000A0D00004368616E656C2032A2
:1032380020636F756E74203A0000000000000000E3
:10324800000000000102030406070809000000004E
:103258000102030402030405060708090A0B0C0D02
:103268000E0F10100102030405060708090A0B0CCB
:103278000D0E0F103031323334353637383961623C
:10328800636465666768696A6B6C6D6E6F7071728E
:0C329800737475767778797A0000000076
:0432A400E900000835
:0432A800C100000859
:0C32AC0000127A00040000000100000085
:0400000508000AD90C
:00000001FF
